:1000000038C600000C94B00D0C94850D0C945A0D5C
:100010000C942F0D0C94040D0C94D90C0C94AE0C74
:100020000C94830C57C6000055C6000053C6000050
:1000300051C600004FC600004DC600004BC6000070
:1000400049C6000047C6000045C6000043C6000080
:1000500041C600003FC600003DC600000C94390CAC
:1000600039C600000C94530A0C942A0A33C60000C7
:1000700031C600002FC600002DC600002BC60000B0
:1000800029C6000027C6000025C6000023C60000C0
:100090000C94010A0C94D8091DC600000C9436106B
:1000A00019C6000017C6000015C6000013C60000E0
:1000B00011C600000FC600000DC600000BC60000F0
:1000C00009C6000007C6000005C6000003C6000000
:1000D00001C60000FFC500000C94AF090C9486090E
:1000E000F9C50000D807DB07CA07CE07D4071208F6
:1000F000DF07E307E907ED07F107F707FB07FF074E
:100100001208050809080D08360B3B0B400B4A0B7B
:10011000540BCD0B5E0B660B6E0B780B820B8C0BAE
:100120009B0BA50BCD0BAF0BB90BC30B084AD73BF1
:100130003BCE016E84BCBFFDC12F3D6C74319ABDB6
:1001400056833DDA3D00C77F11BED9E4BB4C3E91DA
:100150006BAAAABE000000803F004E414E494E49A6
:100160005459494E46CDCCCC3D0AD7233C17B7D184
:100170003877CC2B329595E6241FB14F0A0000202A
:10018000410000C84200401C4620BCBE4CCA1B0EA9
:100190005AAEC59D7401B202FFFF0190040923A16C
:1001A00035016A020600016008000000000000003E
:1001B00000006004400000000162020000006004D2
:1001C00000400000037B034CCD6C03AB0336567636
:1001D00000680402CB47A202180400058BC1010C81
:1001E0000400000000037F060CC92C979797038931
:1001F00003264666006C0220000240040000000056
:100200000244040000000002480400000000024C08
:10021000040000000002500400000000025404002A
:1002200000000002580400000000025C040000000E
:100230000002BC040000000001EC040000400003C8
:100240007F060CC92C9797970402030D355D0409AE
:1002500004872D353D00A301000000000107860141
:10026000FE074105F120283038077E01300746019E
:100270009A074704F1283038076C04F12830380217
:1002800016020001FB00003E000B003600010002D8
:100290000003000000650054FFEF0000FA80000B2F
:1002A00012820001000200000000000000000000B7
:1002B0000000000000280000FFFF4581FFFFFA72E8
:1002C00000000000000003E80000000100017FFFC3
:1002D000FFFE8001001B0000000000000000000085
:1002E00000000000003E03304000000002CAE309A5
:1002F0003E800000200000000000000040000000E0
:100300006000000041FF000000000B2A00001655AD
:1003100000002182FD872650FD800000001F0000A4
:100320000005800000000000000100000002000045
:1003300000030000400000000000046F000265326E
:1003400000005EC04000000000000000000000004F
:1003500000000000FB8C6F5DFD5D08D9007C733BE5
:10036000006C12CC3200139D3200D0D6320008004F
:10037000400001F4FFE68079020000000000D0D6C2
:1003800000002710FB0000004000000000000000FB
:10039000000000000000000100000000000001005B
:1003A000010000000000FA36FFBC308E0005FBF0B3
:1003B000FFD95BC8FFD09ABE000010A9FFF41EB29F
:1003C00000CEBBF7000000010000000400020002A4
:1003D0000200000CFFC280000001800000CF8000FE
:1003E00040000000000000010000000000000600C6
:1003F00000000014000000000000000000000000E9
:1004000000000000000000000000000000000000EC
:1004100000000000000000000000000000000000DC
:100420000000000000000000033F68B6793528BCDA
:10043000C67ED16C80000000400000000000B26A5F
:1004400000000000000000000000000000003FF07D
:10045000000000300000000000000000000000006C
:10046000000000000000000000000000000000008C
:10047000000000000000254D002F706D000005AE4B
:10048000000C02D00000000000650054FFEF0000E7
:1004900000000000000001000044000000000C000B
:1004A0000000010000000000006500000054000092
:1004B000FFEF00000000000000000000000000004E
:1004C00000000000400000000000000000000000EC
:1004D00000000000400000000000000000000000DC
:1004E0000000000000000001000000020000000009
:1004F00000000000000000000000000000000000FC
:1005000000000000000000000000000000000000EB
:1005100000000000001B00000000000000000000C0
:1005200000000000000000000000000000000000CB
:1005300000000000000000000000000000000000BB
:1005400040000000001B0000000000000000000050
:10055000000000000000000000000000000000009B
:10056000000000000000000000000000000000008B
:10057000000000000000000000000000000000007B
:1005800000000000D8DCBAA2F1DEB2B8B4A88191B4
:10059000F74A907F916AF3F9DBA8F9B0BAA080F22C
:1005A000CE81F3C2F1C1F2C3F3CCA2B280F1C6D8BE
:1005B00080BAA7DFDFDFF2A7C3CBC5B6F087A2946E
:1005C0002448703C95406834589B78A2F183922D62
:1005D000557DD8B1B4B8A1D09180F270F370F27C9F
:1005E00080A8F101B09887D943D886C988BAA1F20A
:1005F0000EB89780F1A9DFDFDFAADFDFDFF2AAC53F
:10060000CDC7A90CC92C97979797F1A9892646665B
:10061000B0B4BA80ACDEF2CAF1B28C02A9B69800CE
:10062000890E161EB8A9B4992C547CB08AA89636A7
:100630005676F1B9AFB4B083C0B8A89711B18F980E
:10064000B9AFF0240844106418F1A329557DAF8395
:10065000B593AFF0002850F1A3869F61A6DADEDFE4
:10066000D9FAA38696DB31A6D9F8DFBAA68FC2C520
:10067000C7B28CC1B8A2DFDFDFA3DFDFDFD8D8F1DC
:10068000B8A8B286B4980D355DB8AA98B0872D3554
:100690003DB2B6BAAF8C96198F9FA70E161EB49AAC
:1006A000B8AA872C547CB9A3DEDFDFA3B180F2C4E3
:1006B000CDC9F1B8A9B499830D355D89B9A32D557C
:1006C0007DB593A30E161EA92C547CB8B4B0F19737
:1006D00083A81184A50998A383F0DA240844106440
:1006E00018D8F1A529557DA58595021A2E3A565A96
:1006F0004048F9F3A3D9F8F098832408441064180B
:100700009782A8F111F098A2240844106418DAF333
:10071000DED883A59401D9A302F1A2C3C5C7D8F13D
:100720008492A24DDA2AD84869D92AD86855DA3293
:10073000D85071D932D8705DDA3AD85879D93AD8C8
:100740007893A34DDA2AD84869D92AD86855DA327D
:10075000D85071D932D8705DDA3AD85879D93AD8A8
:1007600078A88A9AF02850789EF38818F19F1D98EF
:10077000A8D908D8C89F129EF315A8DA1210D8F18C
:10078000AFC8978734B5B994A421F3D922D8F22DF4
:10079000F3D92AD8F235F3D932D881A4606061D96F
:1007A00061D86C6869D969D8747071D971D8B1A3EE
:1007B00084193D5DA3831A3E5E931030811011B8F9
:1007C000B0AF8F94F2DA3ED8B49AA88729DAF8D875
:1007D000879A35DAF8D8879A3DDAF8D8B1B9A4986B
:1007E00085022E56A581000C14A397B08AF12DD94D
:1007F00028D84DD948D86DD968D8B1840DDA0ED82B
:10080000A32983DA2C0ED8A3844983DA2C4C0ED882
:10081000B8B0A88A9AF520AADADFD8A840AAD0DA18
:10082000DED8A860AADAD0DFD8F19786A8319B0677
:100830009907AB9728889BF00C201440B8B0B4A857
:100840008C9CF0042851791D301438B282ABD098BA
:100850002C505078789BF11AB0F08A9CA8295179D5
:100860008B2951798A2470598B2058718A446938B0
:100870008B3940688A6448318B304960A5882009EB
:1008800071584468113964493019F1AC002C547C1A
:10089000F08CA804285078F1889726A85998AC8C39
:1008A00002264666F0899CA829517924705944692A
:1008B00038644831A98809205970AB11384069A8BB
:1008C000193148608CA83C415C207C00F187981964
:1008D00086A86E767EA999882D557D9EB9A38A2219
:1008E0008A6E8A568A5E9FB183062646660E2E4E13
:1008F0006E9DB8AD002C547CF2B18CB499B9A32D87
:10090000557D8191AC38AD3AB58391AC2DD928D8BD
:100910004DD948D86DD968D88C9DAE29D904AED8A8
:1009200051D904AED879D904D881F39DAD008DAEEC
:100930001981ADD901D8F2AEDA26D88E912983A7D4
:10094000D9ADADADADF32AD8D8F1B0AC89913E5E4A
:1009500076F3AC2E2EF1B18C5A9CAC2C2828289C16
:10096000AC3018A8988128343C9724A728343C9CA4
:1009700024F2B089AC912C4C6C8A9B2DD9D8D851DB
:10098000D9D8D879D9D8D8F19E88A331DAD8D891D6
:100990002DD928D84DD948D86DD968D8B183933589
:1009A0003D8025DAD8D88569DAD8D8B49381A328D0
:1009B000343CF3AB8BF8A391B609B4D9ABDEFAB0F3
:1009C000879CB9A3DDF1A3A3A3A395F1A3A3A39D42
:1009D000F1A3A3A3A3F2A3B49080F2A3A3A3A3A320
:1009E000A3A3A3A3A3B2A3A3A3A3A3A3B087B599CF
:1009F000F1A3A3A398F1A3A3A3A397A3A3A3A3F3F2
:100A00009BA3A3DCB9A7F1262626D8D8FF2900444A
:100A10004D5020496E697469616C697A6174696FBF
:100A20006E206661696C65642028636F64652000D0
:100A3000444D502072656164792120576169746961
:100A40006E6720666F7220666972737420696E74B7
:100A50006572727570742E2E2E00456E61626C691F
:100A60006E6720696E746572727570742064657447
:100A7000656374696F6E202841726475696E6F20BA
:100A800065787465726E616C20696E7465727275DA
:100A900070742030292E2E2E00456E61626C696EB6
:100AA0006720444D502E2E2E004D50553630353097
:100AB00020636F6E6E656374696F6E206661696C2A
:100AC0006564004D50553630353020636F6E6E656D
:100AD0006374696F6E207375636365737366756C99
:100AE00000496E697469616C697A696E6720444D6A
:100AF000502E2E2E0054657374696E6720646576DF
:100B000069636520636F6E6E656374696F6E732EC3
:100B10002E2E00496E697469616C697A696E67206E
:100B200049324320646576696365732E2E2E004634
:100B300049464F206F766572666C6F7721003E00E4
:100B40002C002C003C003E002C002C0020003C001F
:100B500000002100240027002A002D00300033006F
:100B600001010000040107010A0100002200250024
:100B700028002B002E003100340002010000050186
:100B800008010B01000020002300260029002C0092
:100B90002F003200000100000301060109010505D4
:100BA0000505070508080808020202020A0A0808E3
:100BB0000404040401010101010101010303030311
:100BC00003030303040707070C0C0C0C0C0C0C0CA0
:100BD0000202020206060606060606060B0B0B0BB1
:100BE0000B0B0B0B010210202008081020401020D6
:100BF00040800201020108040201010204081020E1
:100C000040808040201008040201800402018040DE
:100C10002010080402010804020101020408102047
:100C20004080010204081020408000000A0B0209E5
:100C30000C0D0E0807030401000000000000000076
:100C400000000000000000000000000000000000A4
:100C50000000000000001211100000000000000061
:100C60000000000000000000000000000000000084
:100C7000842C11241FBECFEFD1E2DEBFCDBF00E038
:100C80000CBF13E0A0E0B2E0E0EFFBE600E00BBF3A
:100C900002C007900D92A035B107D9F729E0A0E571
:100CA000B3E001C01D92A733B207E1F716E0C9E334
:100CB000D6E000E006C021970109802FFE010E94C6
:100CC000B033C833D10780E00807A9F70E94321774
:100CD0000C94F63595C9CF92DF92EF92FF920F9365
:100CE0001F93CF93DF936C017A018B01C0E0D0E0BA
:100CF000CE15DF0589F0D8016D918D01D601ED91FA
:100D0000FC910190F081E02DC6011995892B11F419
:100D10007E0102C02196ECCFC701DF91CF911F91D8
:100D20000F91FF90EF90DF90CF900895FC01A08984
:100D3000B1898C91A689B78982FD0FC09C91818D64
:100D40008F5F8F73228D821749F0218DDF01A20FF3
:100D5000B11D5D969C93818F08958C910895FC013F
:100D6000538D448D252F30E0842F90E0821B930B10
:100D7000541710F0CF96089501970895FC01918DB6
:100D8000828D981761F0828DDF01A80FB11D5D96ED
:100D90008C91928D9F5F9F73928F90E008958FEF5B
:100DA0009FEF0895FC01918D828D981731F0828D0F
:100DB000E80FF11D858D90E008958FEF9FEF089566
:100DC000FC01918D228D892F90E0805C9F4F821BCA
:100DD00091098F739927089581EA95E0F1DF21E069
:100DE000892B09F420E0822F08958EE396E0E8DF56
:100DF00021E0892B09F420E0822F08958BED96E005
:100E0000DFDF21E0892B09F420E0822F0895FC0127
:100E1000848DDF01A80FB11DA35ABF4F2C91848D83
:100E200090E001968F739927848FA689B7892C93B8
:100E3000A089B1898C9180648C93938D848D981353
:100E400006C00288F389E02D80818F7D808308951C
:100E5000EF92FF920F931F93CF93DF93EC0181E00A
:100E6000888F9B8D8C8D981305C0E889F9898081C6
:100E700085FD23C0F62E0B8D10E00F5F1F4F0F7303
:100E80001127E02E8C8DE8120BC00FB607FCFACFAD
:100E9000E889F989808185FFF5CFCE01B8DFF2CFEF
:100EA0008B8DFE01E80FF11DE35AFF4FF0820B8F8F
:100EB000EA89FB898081806207C0EE89FF896083AF
:100EC000E889F98980818064808381E090E0DF9106
:100ED000CF911F910F91FF90EF900895CF93DF93E3
:100EE000EC01888D8823C1F0EA89FB89808185FD2A
:100EF00005C0A889B9898C9186FD0EC00FB607FC84
:100F0000F5CF808185FFF2CFA889B9898C9185FFC3
:100F1000EDCFCE017CDFE8CFDF91CF91089580E067
:100F200090E0892B19F06ADF81111BC080E090E00E
:100F3000892B19F05ADF811117C080E090E0892BCE
:100F400041F080E090E0892B21F00E9400008111A7
:100F50000EC080E090E0892B79F03EDF81110AC05D
:100F600008950E940000E2CF0E940000E6CF0E9498
:100F70000000EFCF0C940000089590E0FC01319741
:100F8000E231F10508F04EC08827EE58FF4F8F4F31
:100F90000C94B033809180008F7703C080918000E3
:100FA0008F7D80938000089580918000877FF9CFA6
:100FB00084B58F7702C084B58F7D84BD08958091FC
:100FC000B0008F7703C08091B0008F7D8093B00018
:100FD0000895809190008F7707C0809190008F7D59
:100FE00003C080919000877F809390000895809146
:100FF000A0008F7707C08091A0008F7D03C08091F3
:10100000A000877F8093A0000895809120018F77B2
:1010100007C0809120018F7D03C080912001877FD0
:101020008093200108953FB7F894809152059091E4
:101030005305A0915405B091550526B5A89B05C050
:101040002F3F19F00196A11DB11D3FBFBA2FA92F47
:10105000982F8827820F911DA11DB11DBC01CD01C4
:1010600042E0660F771F881F991F4A95D1F70895B0
:10107000089585ED8093BC008091BC0084FDFCCF79
:1010800010927C05089540912805262F30E0240F0A
:10109000311D21323105DCF420917C052430C9F466
:1010A000FC0180E090E0861758F4309128052191EA
:1010B000DC01AA5FBA4FA30FB11D2C930196F3CFA9
:1010C00080912805680F6093280580E0089581E0ED
:1010D000089582E008950895E091510380915003AE
:1010E000E81730F4F0E0EA51FB4F808190E008957A
:1010F0008FEF9FEF089590915103809150039817BF
:1011000050F4E92FF0E0EA51FB4F208130E09F5F7F
:101110009093510302C02FEF3FEFC90108958091D2
:10112000500390E020915103821B91090895CF92C2
:10113000DF92EF92FF920F931F93CF93DF937C0187
:10114000262F972F8A0180917D05882391F0C62F45
:10115000D72F6E01C40ED51ECC15DD0569F069913F
:10116000D701ED91FC910190F081E02DC701199517
:10117000F3CF642F822F87DFC801DF91CF911F91BA
:101180000F91FF90EF90DF90CF900895CF93DF9372
:101190001F92CDB7DEB7698320917D052223D1F060
:1011A0002091A005203240F021E030E0FC013383A3
:1011B000228380E090E014C080917E05E82FF0E06B
:1011C000E158FA4F998190838F5F80937E058093D9
:1011D000A00504C061E0CE01019655DF81E090E0FA
:1011E0000F90DF91CF910895089580E090E00895E9
:1011F00081E08093520308950E94D535DC01ED9182
:10120000FC910190F081E02D1994EF92FF920F93E1
:101210001F93CF93DF938C017B01C0E0D0E0F701F7
:10122000EC0FFD1F6491662361F0D801ED91FC91F4
:101230000190F081E02DC8011995892B11F02196BC
:10124000EECFCE01DF91CF911F910F91FF90EF90E4
:1012500008956115710579F0FB0101900020E9F70F
:101260003197AF01461B570BDC01ED91FC910280D9
:10127000F381E02D199480E090E008954F925F9201
:101280006F927F92EF92FF920F931F93CF93DF9312
:10129000CDB7DEB7A1970FB6F894DEBF0FBECDBFB6
:1012A0007C01FA01CB0119A2223008F42AE08E0158
:1012B0000F5D1F4F422E512C612C712CBF01A301D9
:1012C00092010E949131F901CA01015011096A305D
:1012D00014F4605D01C0695CD8016C93232B242B4E
:1012E000252B61F7B801C701B4DFA1960FB6F894BA
:1012F000DEBF0FBECDBFDF91CF911F910F91FF9049
:10130000EF907F906F905F904F9008951F920F9293
:101310000FB60F9211240BB60F922F933F934F935A
:101320005F936F937F938F939F93AF93BF93EF934D
:10133000FF9381EA95E06BDDFF91EF91BF91AF9153
:101340009F918F917F916F915F914F913F912F91DD
:101350000F900BBE0F900FBE0F901F9018951F920D
:101360000F920FB60F9211240BB60F922F933F934B
:101370004F935F936F937F938F939F93AF93BF939D
:10138000EF93FF9381EA95E0D1DCFF91EF91BF915C
:10139000AF919F918F917F916F915F914F913F910D
:1013A0002F910F900BBE0F900FBE0F901F901895AE
:1013B0001F920F920FB60F9211240BB60F922F931C
:1013C0003F934F935F936F937F938F939F93AF93CD
:1013D000BF93EF93FF938EE396E019DDFF91EF91BA
:1013E000BF91AF919F918F917F916F915F914F913D
:1013F0003F912F910F900BBE0F900FBE0F901F903B
:1014000018951F920F920FB60F9211240BB60F92E0
:101410002F933F934F935F936F937F938F939F93FC
:10142000AF93BF93EF93FF938EE396E07FDCFF9142
:10143000EF91BF91AF919F918F917F916F915F914C
:101440004F913F912F910F900BBE0F900FBE0F90B9
:101450001F9018951F920F920FB60F9211240BB682
:101460000F922F933F934F935F936F937F938F933D
:101470009F93AF93BF93EF93FF938BED96E0C7DC01
:10148000FF91EF91BF91AF919F918F917F916F915C
:101490005F914F913F912F910F900BBE0F900FBE18
:1014A0000F901F9018951F920F920FB60F92112454
:1014B0000BB60F922F933F934F935F936F937F934E
:1014C0008F939F93AF93BF93EF93FF938BED96E032
:1014D0002DDCFF91EF91BF91AF919F918F917F9103
:1014E0006F915F914F913F912F910F900BBE0F9095
:1014F0000FBE0F901F901895CF93DF93282F30E0E9
:10150000F901E65DF34F8491F901EC51F44FD49168
:10151000F901E256F44FC491CC2389F081112DDDFD
:10152000EC2FF0E0EE0FFF1FEC57F44FA591B491B4
:10153000EC91ED2381E090E021F480E002C080E0B6
:1015400090E0DF91CF9108951F93CF93DF93282FE1
:1015500030E0F901E65DF34F8491F901EC51F44F6D
:10156000D491F901E256F44FC491CC23C1F0162F67
:10157000811103DDEC2FF0E0EE0FFF1FE659F44F71
:10158000A591B4918FB7F894111105C09C91ED2FDE
:10159000E095E92302C0EC91ED2BEC938FBFDF9136
:1015A000CF911F910895CF93DF9390E0FC01EC5110
:1015B000F44F2491FC01E256F44F8491882361F1A9
:1015C00090E0880F991FFC01E05BF44FC591D49126
:1015D000FC01E659F44FA591B491611109C09FB780
:1015E000F8948881209582238883EC912E230BC068
:1015F000623061F49FB7F8943881822F80958323FD
:101600008883EC912E2B2C939FBF06C08FB7F89444
:10161000E8812E2B28838FBFDF91CF9108951F93F0
:10162000CF93DF93182FEB0161E0BDDF209711F41A
:1016300060E004C0CF3FD10531F461E0812FDF913C
:10164000CF911F9181CFE12FF0E0E65DF34FE49160
:101650004E2F50E0FA013197E231F10508F09DC0BC
:101660008827EC57FF4F8F4F0C94B03384B58068B8
:1016700084BDC7BD97C084B5806284BDC8BD92C01B
:1016800080918000806880938000D0938900C0930F
:10169000880088C080918000806280938000D09311
:1016A0008B00C0938A007EC0809180008860809308
:1016B0008000D0938D00C0938C0074C08091B000E6
:1016C00080688093B000C093B3006CC08091B0007C
:1016D00080628093B000C093B40064C08091900099
:1016E000806880939000D0939900C09398005AC06E
:1016F00080919000806280939000D0939B00C09373
:101700009A0050C080919000886080939000D093A0
:101710009D00C0939C0046C08091A000806880938B
:10172000A0008091A0008F7B8093A000D093A9009F
:10173000C093A80037C08091A00080628093A00071
:10174000D093AB00C093AA002DC08091A000886008
:101750008093A000D093AD00C093AC0023C08091D3
:101760002001806880932001D0932901C093280133
:1017700019C080912001806280932001D0932B01B9
:10178000C0932A010FC080912001886080932001BE
:10179000D0932D01C0932C0105C0C038D1050CF0A9
:1017A0004CCF46CFDF91CF911F910895863308F03B
:1017B000865390917B00282F2870977F922B9093CF
:1017C0007B008770806480937C0080917A008064C5
:1017D00080937A0080917A0086FDFCCF809178001A
:1017E0002091790090E0922B08958F929F92AF9272
:1017F000BF92CF92DF92EF92FF926B017C0113DCDC
:101800004B015C01C114D104E104F104E9F00BDCEB
:10181000DC01CB0188199909AA09BB09883E9340CC
:10182000A105B10578F321E0C21AD108E108F10859
:1018300088EE880E83E0981EA11CB11CC114D1044F
:10184000E104F10421F7DECFFF90EF90DF90CF901D
:10185000BF90AF909F908F9008952FB7F8946091AC
:101860004E0570914F0580915005909151052FBF05
:1018700008951F920F920FB60F9211242F933F934A
:101880008F939F93AF93BF9380914E0590914F0597
:10189000A0915005B091510530914D0523E0230FE3
:1018A0002D3720F40196A11DB11D05C026E8230F98
:1018B0000296A11DB11D20934D0580934E05909376
:1018C0004F05A0935005B09351058091520590911A
:1018D0005305A0915405B09155050196A11DB11D68
:1018E0008093520590935305A0935405B0935505EA
:1018F000BF91AF919F918F913F912F910F900FBE0C
:101900000F901F9018951F920F920FB60F921124EF
:101910000BB60F922F933F934F935F936F937F93E9
:101920008F939F93AF93BF93EF93FF93E0910E023A
:10193000F0910F021995FF91EF91BF91AF919F9197
:101940008F917F916F915F914F913F912F910F9068
:101950000BBE0F900FBE0F901F9018951F920F9205
:101960000FB60F9211240BB60F922F933F934F9304
:101970005F936F937F938F939F93AF93BF93EF93F7
:10198000FF93E0910C02F0910D021995FF91EF91F8
:10199000BF91AF919F918F917F916F915F914F9187
:1019A0003F912F910F900BBE0F900FBE0F901F9085
:1019B00018951F920F920FB60F9211240BB60F922B
:1019C0002F933F934F935F936F937F938F939F9347
:1019D000AF93BF93EF93FF93E0910202F091030264
:1019E0001995FF91EF91BF91AF919F918F917F9149
:1019F0006F915F914F913F912F910F900BBE0F9080
:101A00000FBE0F901F9018951F920F920FB60F9256
:101A100011240BB60F922F933F934F935F936F93C5
:101A20007F938F939F93AF93BF93EF93FF93E09137
:101A30000002F09101021995FF91EF91BF91AF91D2
:101A40009F918F917F916F915F914F913F912F91D6
:101A50000F900BBE0F900FBE0F901F9018951F9206
:101A60000F920FB60F9211240BB60F922F933F9344
:101A70004F935F936F937F938F939F93AF93BF9396
:101A8000EF93FF93E0910A02F0910B021995FF91F9
:101A9000EF91BF91AF919F918F917F916F915F91E6
:101AA0004F913F912F910F900BBE0F900FBE0F9053
:101AB0001F9018951F920F920FB60F9211240BB61C
:101AC0000F922F933F934F935F936F937F938F93D7
:101AD0009F93AF93BF93EF93FF93E0910802F09130
:101AE00009021995FF91EF91BF91AF919F918F914D
:101AF0007F916F915F914F913F912F910F900BBE0E
:101B00000F900FBE0F901F9018951F920F920FB657
:101B10000F9211240BB60F922F933F934F935F9325
:101B20006F937F938F939F93AF93BF93EF93FF93A5
:101B3000E0910602F09107021995FF91EF91BF9194
:101B4000AF919F918F917F916F915F914F913F9155
:101B50002F910F900BBE0F900FBE0F901F901895F6
:101B60001F920F920FB60F9211240BB60F922F9364
:101B70003F934F935F936F937F938F939F93AF9315
:101B8000BF93EF93FF93E0910402F0910502199542
:101B9000FF91EF91BF91AF919F918F917F916F9145
:101BA0005F914F913F912F910F900BBE0F900FBE01
:101BB0000F901F9018952F923F924F925F926F92C5
:101BC0007F928F929F92AF92BF92CF92DF92EF92CD
:101BD000FF920F931F93CF93DF93CDB7DEB760973C
:101BE0000FB6F894DEBF0FBECDBFDC01DA96BC9114
:101BF000B983B11102C0198226C1988B8F872DDE5F
:101C00006E837F8388879987EF85F88982A193A166
:101C1000A4A1B5A14E815F8168857985481B590BC8
:101C20006A0B7B0B86A597A5A0A9B1A948175907F0
:101C30006A077B0700F3248D358DD9018D919D9125
:101C40000D90BC91A02D8A839B83AC83BD8300A0A3
:101C5000F1A1E02D9C01AD016081718182819381B0
:101C60000E94C2314B015C01EF85F88922A533A5A2
:101C700044A555A56A817B818C819D810E94C231DA
:101C80006B017C01AF85B88950962D913D914D91A6
:101C90005C915397C501B4010E947F30EF85F889AC
:101CA00026A137A140A551A50E94C3312B013C01BB
:101CB000AF85B88996966D937D938D939C939997F4
:101CC000DB96BC91BA87B11118C0EF85F8892485DD
:101CD000358546855785C701B6010E947F309B0137
:101CE000AC01C301B2010E94C231AF85B88996969A
:101CF0006D937D938D939C939997EF85F88946A07A
:101D000057A060A471A416A907A930AC21AC212F5B
:101D1000302F432D522DC301B2010E9447331816B4
:101D20002CF4812F902FA32DB22D18C0AF85B88928
:101D3000D2968D919D910D90BC91A02D8B879C8703
:101D4000AD87BE879C01AD01C301B2010E941A306C
:101D500087FF0AC08B859C85AD85BE85EF85F88998
:101D600086A397A3A0A7B1A7FA85FF2379F0AF8533
:101D7000B8891C962D913D914D915C911F97C5019D
:101D8000B4010E947F304B015C0103C0812C912C77
:101D90005401EF85F8892489358946895789C70117
:101DA000B6010E947F309B01AC01AF85B889969641
:101DB0006D917D918D919C9199970E94C2319B016B
:101DC000AC01C501B4010E94C3316B017C01212F1C
:101DD000302F432D522D0E9447331816A4F0EF8563
:101DE000F88912A903A934A825A8212F302F432D43
:101DF000522DB601C7010E941A3087FD04C01C2D68
:101E00000D2D3E2C2F2CAF85B8895E96ED91FC915F
:101E10005F97812F902FA32DB22D80839183A28372
:101E2000B3838A819B81AC81BD81EF85F88982A7CC
:101E300093A7A4A7B5A78E819F81A885B98582A302
:101E400093A3A4A3B5A3898160960FB6F894DEBFCF
:101E50000FBECDBFDF91CF911F910F91FF90EF90FB
:101E6000DF90CF90BF90AF909F908F907F906F90BA
:101E70005F904F903F902F9008952F923F924F92F6
:101E80005F926F927F928F929F92AF92BF92CF920A
:101E9000DF92EF92FF920F931F93CF93DF9300D0C7
:101EA0001F92CDB7DEB74C01270138010E8D1F8D73
:101EB00028A039A0DC015F965C934E935E975D96F7
:101EC0007C936E935C9791963C932E939097DA96C1
:101ED0001C92FC0112AA13AA14AA15AA80E090E091
:101EE000AFE7B3E486AB97ABA0AFB1AF84E690E0C9
:101EF000A0E0B0E086A797A7A0ABB1AB318E208E53
:101F000020E030E0A901C301B2010E941A3087FD30
:101F100083C020E030E0A901C601B5010E941A305B
:101F200087FD7AC020E030E0A9016A8D7B8D8C8D21
:101F30009D8D0E941A3087FD6FC0D4015B961C9363
:101F40000E935A9781E00130110509F080E0F40109
:101F500083AF4082518262827382A482B582C6823C
:101F6000D7828A8D9B8DAC8DBD8D80879187A2870E
:101F7000B38744865586668677862DEC3CEC4CEC20
:101F80005DE3C601B5010E947F3069837A838B834C
:101F90009C83F401608B718B828B938B2DEC3CECDA
:101FA0004CEC5DE36A8D7B8D8C8D9D8D0E9489321A
:101FB0006B017C01D40154966D937D938D939C931A
:101FC00057972A94232841F5A301920160E070E01D
:101FD000CB010E94C231F401648775878687978799
:101FE00029813A814B815C8160E070E0CB010E94E5
:101FF000C231D40150966D937D938D939C935397EA
:10200000A701960160E070E0CB010E94C231F401AB
:10201000648B758B868B978B20DCD4019E960D91FB
:102020001D912D913C91D197DC01CB01801B910B2F
:10203000A20BB30BF40182A393A3A4A3B5A30F90A7
:102040000F900F900F90DF91CF911F910F91FF9004
:10205000EF90DF90CF90BF90AF909F908F907F9048
:102060006F905F904F903F902F9008951F920F9226
:102070000FB60F9211240BB60F922F933F934F93ED
:102080005F936F937F938F939F93AF93BF93EF93E0
:10209000FF938091B900887F803609F49CC068F571
:1020A000883209F45BC090F4803109F454C038F4EC
:1020B000882309F4F6C0883009F44DC0F6C0883191
:1020C00009F44CC0803209F45DC0EFC0803409F4DB
:1020D00068C048F4803309F455C0883309F0E5C07E
:1020E00080937A05D8C0803509F44FC0883509F44B
:1020F0005DC0883409F0D9C0D6C0883909F4C7C09A
:10210000A8F4883709F467C038F4883609F463C046
:10211000803709F460C0C9C0883809F4B8C0803974
:1021200009F45FC0803809F0C0C05BC0803B09F48F
:1021300086C038F4803A09F466C0883A09F47FC052
:10214000B4C0803C09F4A7C0883C09F4A4C0883B13
:1021500009F48AC0AAC08091570510C090917905F2
:1021600080917805981770F5E091790581E08E0FE0
:1021700080937905F0E0E85AFA4F80818093BB00A4
:1021800085EC86C080937A058EC0E091790581E068
:102190008E0F809379058091BB00F0E0E85AFA4FEA
:1021A000808390917905809178056EC0E0917905E2
:1021B00081E08E0F809379058091BB00F0E0E85AB2
:1021C000FA4F808380917B0581116DC081E08093FF
:1021D000560584EA61C083E080937C0510924C052B
:1021E000CFCF80914C05803208F051C0E0914C0572
:1021F00081E08E0F80934C058091BB00F0E0E45DA0
:10220000FA4F8083BDCF85EC8093BC0010927C0593
:1022100080914C05803230F4E0914C05F0E0E45DB3
:10222000FA4F108260914C0570E0E0912A05F09120
:102230002B058CE295E0199510924C0536C084E090
:1022400080937C051092290510922805E0912605BF
:10225000F0912705199580912805811105C081E02D
:102260008093280510920605E091290581E08E0FE4
:1022700080932905F0E0EA5FFA4F80818093BB00EC
:102280009091290580912805981708F479CF85E861
:102290008093BC000AC085EC8093BC0010927C0542
:1022A00004C010927A050E943908FF91EF91BF9106
:1022B000AF919F918F917F916F915F914F913F91DE
:1022C0002F910F900BBE0F900FBE0F901F9018957F
:1022D000EF92FF920F931F93CF93DF931F921F9262
:1022E000CDB7DEB7142F91E090937D0580939F05C5
:1022F00010927E051092A00588E797E029833A8323
:102300000E94C6082981022FE22E3A81F32E8E2DDB
:10231000801B811740F4F70161917F0188E797E006
:102320000E94C608F4CF48D291E0811190E0892F35
:102330000F900F90DF91CF911F910F91FF90EF9031
:102340000895CF93DF931F92CDB7DEB749839E01E7
:102350002F5F3F4F41E0BCDF0F90DF91CF91089599
:102360002F923F924F925F926F927F928F929F92A5
:10237000AF92BF92CF92DF92EF92FF920F931F9393
:10238000CF93DF93CDB7DEB727970FB6F894DEBFB4
:102390000FBECDBFE82E6B834F8369015EDA4B0120
:1023A0005C016E2C660CF12C1E82772473945F8185
:1023B000452F50E05D834C831801412C512C4F81F7
:1023C000F41608F097C070927D05E0929F05109278
:1023D0007E051092A0056B8188E797E00E94C608F1
:1023E000EBD170927D05E0929F0510927E051092D0
:1023F000A00580917C058111FCCF2C813D812F1996
:1024000031092132310514F020E230E0213208F0A8
:1024100020E270927C0570927B058FEF80937A05A5
:1024200010927905820F80937805709257058091FC
:10243000570586298093570580915605813071F4A0
:1024400010925605809157058093BB008091BC0087
:1024500083FDF8CF95EC9093BC0003C0E5EEE093CC
:10246000BC0080917C058130E1F380917905821771
:1024700010F420917905A8E5B5E0E6EEF4E08E2FA2
:1024800046EE54E0841B821718F48D918193F7CFA8
:102490001092510320935003909150038091510367
:1024A000981711F10115110599F4A6012E81420F1B
:1024B000511D27FD5A955A83498388E797E00E946A
:1024C0007B08E981FA8180832E812F5F2E83E4CF00
:1024D000C4D9DC01CB0188199909AA09BB09821565
:1024E0009305A405B50508F38F81813208F080E2D9
:1024F000F80E65CFFE8001151105D1F0AED9DC01D3
:10250000CB0188199909AA09BB0920E030E080179E
:102510009107A207B30760F05F81252F30E08F2D70
:102520000F2C000C990B8217930714F4FF24FA94D4
:102530008F2D27960FB6F894DEBF0FBECDBFDF916B
:10254000CF911F910F91FF90EF90DF90CF90BF90B0
:10255000AF909F908F907F906F905F904F903F9043
:102560002F900895BF92CF92DF92EF92FF920F9338
:102570001F93CF93DF931F92CDB7DEB7F82EE62ED1
:10258000C42EB22ED02E08EE13E09E012F5F3F4FD7
:1025900041E0E6DE882319F1EC2DF0E0EB19F109BA
:1025A000319621E030E002C0220F331FBA94E2F7E7
:1025B000215031090E2E01C0220F0A94EAF78D2D09
:1025C00001C0880FEA95EAF7422F40959981492387
:1025D0002823422B49836E2D8F2DB3DE01C080E06E
:1025E0000F90DF91CF911F910F91FF90EF90DF90AF
:1025F000CF90BF900895CF92DF92EF92FF920F930A
:102600001F93CF93DF931F92CDB7DEB7F82EE62E40
:10261000D42EC22E08EE13E09E012F5F3F4F41E003
:102620009FDE9981CC2041F041E050E001C0440F91
:10263000DA94EAF7492B09C021E030E0A90101C092
:10264000440FDA94EAF74095492349836E2D8F2D84
:1026500078DE0F90DF91CF911F910F91FF90EF9057
:10266000DF90CF9008954F925F926F927F928F92FA
:102670009F92AF92BF92CF92DF92EF92FF920F9311
:102680001F93CF93DF93EC016A017B0120E030E0E0
:102690004FE753E4C701B6010E94473387FF54C098
:1026A000CAAADBAAECAAFDAA412C512C8FE7682EFE
:1026B00083E4782E4EAA5FAA68AE79AE8AAD8823ED
:1026C00009F442C00E8D1F8DF80180809180A28098
:1026D000B380A3019201C501B4010E9447331816CB
:1026E00034F4F80140825182628273820DC0A701E6
:1026F0009601C501B4010E941A3087FF05C0F80198
:10270000C082D182E282F3828EA09FA0A8A4B9A445
:10271000CEA8DFA8E8ACF9ACA7019601C501B401C9
:102720000E944733181664F0CAA8DBA8ECA8FDA8DD
:10273000A7019601C501B4010E941A3087FF04C0A9
:10274000CEA2DFA2E8A6F9A6DF91CF911F910F914B
:10275000FF90EF90DF90CF90BF90AF909F908F90C1
:102760007F906F905F904F900895FC01A089B18990
:1027700082E08C93A485B5851C92A685B78580E1FF
:102780008C93108EA489B58986E08C93A289B38935
:102790008C9180618C93A289B3898C9188608C9391
:1027A000A289B3898C9180688C930288F389E02D8B
:1027B00080818F7D808308952091A00590919F0551
:1027C000213208F04AC080917C058111FCCF32E0B3
:1027D00030937C0531E030937B053FEF30937A05F1
:1027E0001092790520937805AFE7B5E048E555E00C
:1027F000FA013E2F341B321718F43D913193F9CF73
:102800001092570520915705990F922B90935705D9
:1028100090915605913061F41092560590915705AC
:102820009093BB009091BC0093FDF8CF95EC01C054
:1028300095EE9093BC0090917C059230E1F39091DD
:102840007A059F3F79F080917A05803241F080913E
:102850007A05803331F084E005C081E003C082E076
:1028600001C083E010927E051092A00510927D05B4
:1028700008950F931F93CF93DF93CAE0D9E008EE3A
:1028800013E02BE039E041E06AE3888169DD89816A
:10289000DF91CF911F910F91089521E042E06AE608
:1028A00080910A09A8CE482F6EE680910A0949CD89
:1028B0002F923F924F925F926F927F928F929F9250
:1028C000AF92BF92CF92DF92EF92FF920F931F933E
:1028D000CF93DF933C015B01342ED22F202E4F711A
:1028E0006DE680910A092DDD8D2FDDDF80E190E01E
:1028F0000E94C4336C01002339F080E190E00E9413
:10290000C433C82F492E02C0C0E0412CE12CF12C69
:10291000EA14FB0408F068C0C7014096A816B9067F
:1029200018F45A2C5E1802C080E1582E852D90E0D4
:1029300020E031E02D1B31092817390714F45D2EF2
:102940005194F301EE0DFF1D222059F09C2FAC2F66
:10295000B42D8A2F891B851530F484918D9331967F
:10296000F8CFCE2F4F2E2C2F342D452D6FE6809192
:102970000A09AEDC852C912CC114D10411F1432D30
:102980004F716DE680910A09DCDC8D2F8CDF08EE3B
:1029900013E09601452D6FE680910A09E1DCA40160
:1029A000B6018C2F942D0E94D935892B51F0C60188
:1029B0000E945934222011F18C2F942D0E945934F9
:1029C0001DC0E80CF91CD50DEA14FB0408F0A0CFDB
:1029D000D11101C03394432D4F716DE680910A09E6
:1029E000B0DC8D2F60DF94CFC6010E9459342220C5
:1029F00039F08C2F942D0E94593402C080E001C020
:102A000081E0DF91CF911F910F91FF90EF90DF90C8
:102A1000CF90BF90AF909F908F907F906F905F907E
:102A20004F903F902F9008950F931F93662349F086
:102A3000462F9C0108EE13E064E780910A0990DCC0
:102A400002C0FC0110821F910F9108950F931F93F4
:102A5000CF93DF93CAE0D9E008EE13E02BE039E032
:102A600042E062E788817CDC898190E0982F8827AA
:102A70002A81822BDF91CF911F910F910895EF92C0
:102A8000FF920F931F93CF93DF931F92CDB7DEB7C3
:102A90007A0189019E012F5F3F4F41E061DC88236D
:102AA00039F029812E7730E035952795F70120837D
:102AB0000F90DF91CF911F910F91FF90EF900895AC
:102AC000CF93DF93BC018BED96E00E940509EC01EA
:102AD00060E473E08BED96E00E9429098C0F9D1F46
:102AE000DF91CF910895CF92DF92EF92FF920F93F3
:102AF0001F93CF93DF936B01770FEE08FF08F7FE6C
:102B00001BC0EC016DE20E94FE088C014427552792
:102B1000BA014C195D096E097F092AE0CE010E94B5
:102B20003E09800F911FDF91CF911F910F91FF9070
:102B3000EF90DF90CF9008952AE0B701A601DF91D2
:102B4000CF911F910F91FF90EF90DF90CF900C9459
:102B50003E094F925F926F927F928F929F92AF92B7
:102B6000BF92CF92DF92EF92FF926B017C01B42E65
:102B70009B01AC010E949733882319F063E473E052
:102B800027C026013701E89477F82FEF3FEF4FE792
:102B90005FE7C301B2010E94973381110DC02FEF8F
:102BA0003FEF4FE75FE7C301B2010E941A301816EA
:102BB0001CF467E473E00CC02FEF3FEF4FE75FE4D6
:102BC000C701B6010E944733181694F46BE473E012
:102BD0008EE396E0FF90EF90DF90CF90BF90AF90A4
:102BE0009F908F907F906F905F904F900C942909E9
:102BF0002FEF3FEF4FE75FECC701B6010E941A309D
:102C000087FDE4CF20E030E0A901C701B6010E94B2
:102C10001A3087FF0BC06DE28EE396E00E94FE083B
:102C20004C01F7FAF094F7F8F09402C0812C912C43
:102C3000A12C60E070E080E09FE3AB1441F020E065
:102C400030E040E251E40E948932A394F6CF9B0128
:102C5000AC01C701B6010E94C3312B013C010E94A7
:102C6000F6326B017C010E941E309B01AC01C30156
:102C7000B2010E94C2312B013C012AE0B701A6013A
:102C80008EE396E00E943E097C01E80CF91CBB2013
:102C900039F06EE28EE396E00E94FE08E80EF91E1F
:102CA000DB2CDD2031F120E030E040E251E4C301D3
:102CB000B2010E947F302B013C010E94F6324B0191
:102CC000A12CB12C2AE0B501A4018EE396E00E946C
:102CD0003E09E80EF91EC501B4010E941E309B0199
:102CE000AC01C301B2010E94C2312B013C01DA9454
:102CF000D8CFC701FF90EF90DF90CF90BF90AF90FB
:102D00009F908F907F906F905F904F900895CF929B
:102D1000DF92EF92FF92CF93DF93EC016EA57FA538
:102D200088A999A90E941E309B01AC0160E070E067
:102D300080E791E40E9489326B017C019B01AC0128
:102D4000688979898A899B890E947F30688B798B11
:102D50008A8B9B8BA70196016C897D898E899F89BF
:102D60000E9489326C8B7D8B8E8B9F8B8FE090E0E5
:102D7000A0E0B0E08EA79FA7A8ABB9ABDF91CF9141
:102D8000FF90EF90DF90CF9008958F929F92AF9237
:102D9000BF92CF92DF92EF92FF92CF93DF93EC013D
:102DA0008AAD811130C0EE8DFF8DC080D180E28070
:102DB000F380CEA2DFA2E8A6F9A6EC8DFD8D80817E
:102DC0009181A281B3818AA79BA7ACA7BDA78EA83A
:102DD0009FA8A8ACB9ACA5019401C701B6010E9497
:102DE0004733181664F08AA89BA8ACA8BDA8A50113
:102DF0009401C701B6010E941A3087FF04C08EA259
:102E00009FA2A8A6B9A681E08AAFDF91CF91FF90DB
:102E1000EF90DF90CF90BF90AF909F908F900895EC
:102E2000CF93DF93EA0191E090937D0580939F0516
:102E300010927E051092A00588E797E00E94C608D0
:102E4000698188E797E00E94C608688188E797E073
:102E50000E94C608B1DC91E0811190E0892FDF91DA
:102E6000CF910895CF93DF93CDB7DEB7C65BD1097D
:102E70000FB6F894DEBF0FBECDBF789484B58260E4
:102E800084BD84B5816084BD85B5826085BD85B50E
:102E9000816085BD80916E00816080936E0010928C
:102EA0008100809181008260809381008091810007
:102EB0008160809381008091800081608093800098
:102EC0008091B10084608093B1008091B0008160F6
:102ED0008093B000809191008260809391008091F6
:102EE0009100816080939100809190008160809337
:102EF00090008091A10082608093A1008091A10048
:102F000081608093A1008091A00081608093A000E7
:102F10008091210182608093210180912101816053
:102F20008093210180912001816080932001809114
:102F30007A00846080937A0080917A008260809326
:102F40007A0080917A00816080937A0080917A0083
:102F5000806880937A001092C10010925103109201
:102F6000500310927E051092A00510927C0581E01E
:102F700080937B051092560561E084E10E94A40ACB
:102F800061E085E10E94A40A8091B9008E7F809360
:102F9000B9008091B9008D7F8093B90088E4809357
:102FA000B80085E48093BC0088E18093B8008BED85
:102FB00096E0DBDB8EE396E0D8DB81EA95E0D5DBBB
:102FC00083E19BE07DDD01E023E042E06BE6809160
:102FD0000A09C8DA00E022E044E06BE180910A09C6
:102FE000C1DA22E044E06CE180910A09BBDA20E01A
:102FF00046E06BE680910A09FEDA85EF9AE060DD33
:1030000028EE33E04BE059E065E780910A0937DDAF
:1030100080910B09843319F089EA9AE002C083ECAD
:103020009AE04EDD81EE9AE04BDD21E047E06BE671
:1030300080910A09E0DA6EE170E080E090E00E94A1
:10304000F50B20E046E06BE680910A09D4DA40E710
:103050006DE680910A0975D986E025DC40E06DE6D1
:1030600080910A096ED928EE33E04BE059E060E028
:1030700080910A0904DD80900B0928EE33E04BE0D3
:1030800059E061E080910A09FADC90900B0928EE82
:1030900033E04BE059E062E080910A09F0DCA09057
:1030A0000B094FE765E280910A094BD920E045E022
:1030B0006AE680910A099FDA48E665E280910A098A
:1030C00040D921E041E06AE680910A0994DA64E19E
:1030D00070E080E090E00E94F50B01E020E040E02D
:1030E00069E877E084E892E0E3DB882309F4AAC288
:1030F00088E090E00E94C433B82E192FE12CF12C07
:10310000F701EC53FE4F4491F701EB53FE4F24912E
:10311000670133E0C30ED11CF701EA53FE4FE4917F
:10312000EE23C9F1EE2EF12CE330D8F0B7018B2D50
:10313000912FCA54DF4F2883C65BD040CB54DF4F5A
:103140004883C55BD0400E94F134B82E192FCB5470
:10315000DF4F4881C55BD040CA54DF4F2881C65B32
:10316000D040AB2DB12F80E090E08E159F0548F444
:10317000F601E80FF91FEC53FE4FE491ED93019631
:10318000F4CF00E0B7018B2D912F92DBEC0CFD1CEE
:10319000811116C00FC044E0E40EF11CF601EC539F
:1031A000FE4FE491E13031F442E368E380910A0993
:1031B000C8D806C08B2D912F0E94593412E043C20B
:1031C00050ECE516F10408F49BCF8B2D912F0E9453
:1031D000593403E023E042E06BE680910A09C2D94A
:1031E00042E168E380910A09ACD844E069E180914A
:1031F0000A09A7D801E023E045E06AE180910A09C5
:10320000B1D903E023E042E06AE180910A09AAD93A
:1032100022E044E06BE180910A09A4D943E060E731
:1032200080910A098ED840E061E780910A0989D827
:1032300020E040E060E080910A09DDD9082D26E019
:1032400046E060E080910A098DD9092D26E046E02C
:1032500061E080910A0986D90A2D26E046E062E005
:1032600080910A097FD9E12CF12CF701EB56FE4F32
:10327000E491A1E8B0E0AC0FBD1FAE0DB11DEC9321
:1032800081E08E0D9FEFE91AF90AA3E0AE1568F709
:10329000CD57DF4F6881C358D04070E09B012E5F4F
:1032A0003F4F90E02817390704F700E0CE57DF4F73
:1032B0002881C258D040CF57DF4F4881C158D040F5
:1032C00081E890E08C0F9D1F0396F2DA80E0F70111
:1032D000EB56FE4FE491A1E8B0E0AC0FBD1FA80F84
:1032E000B11DEC938F5FBFEFEB1AFB0A843078F3CC
:1032F000CD57DF4F6881C358D04070E0AB014E5FBF
:103300005F4F282F30E0421753070CF700E0CE57ED
:10331000DF4F2881C258D040CF57DF4F4881C15876
:10332000D04081E890E08C0F9D1F0396C1DAB5DA9A
:103330008DDB682FCE01019677DB42E06FE1809153
:103340000A090E94A1114CE961E280910A090E94D8
:10335000A11140E560E280910A090E94A11140E0BC
:1033600062E280910A090E94A11197DA21E046E009
:103370006AE680910A093FD921E047E06AE6809138
:103380000A0939D921E043E06AE680910A0933D974
:1033900080E0F701EB56FE4FE491A1E8B0E0AC0FFE
:1033A000BD1FA80FB11DEC938F5F2FEFE21AF20A39
:1033B000843078F3CD57DF4F6881C358D04070E038
:1033C000AB014E5F5F4F282F30E0421753070CF7D9
:1033D00000E0CE57DF4F2881C258D040CF57DF4F93
:1033E0004881C158D04081E890E08C0F9D1F039622
:1033F0005FDA80E0F701EB56FE4FE491A1E8B0E020
:10340000AC0FBD1FA80FB11DEC938F5F3FEFE31A08
:10341000F30A843078F3CD57DF4F6881C358D0402A
:1034200070E0AB014E5F5F4F282F30E0421753072B
:103430000CF700E0CE57DF4F2881C258D040CF575D
:10344000DF4F4881C158D04081E890E08C0F9D1F2C
:1034500003962EDA80E0F701EB56FE4FE491A1E8E7
:10346000B0E0AC0FBD1FA80FB11DEC938F5F4FEF05
:10347000E41AF40A843078F3CD57DF4F6881C358DB
:10348000D04070E0AB014E5F5F4F282F30E0421715
:1034900053070CF700E0CE57DF4F2881C258D040C9
:1034A000CF57DF4F4881C158D04081E890E08C0F62
:1034B0009D1F0396FDD9CADA83309105E0F3682F8A
:1034C000CE010196B1DA80E0F701EB56FE4FE491B0
:1034D000A1E8B0E0AC0FBD1FA80FB11DEC938F5F4A
:1034E0005FEFE51AF50A843078F3CD57DF4F388067
:1034F000C358D040832C912CA4014E5F5F4F282FDE
:1035000030E04217530704F7CE57DF4FB880C25858
:10351000D040CF57DF4F2880C158D040422D4F7147
:103520006DE680910A090E94A1118B2DBCD9C12C96
:10353000D12C612C77247394B1E84B2E512C4C0E76
:103540005D1E83E0480E511CC814D90490F5C601D5
:1035500040968816990618F4A32CAC1802C0F0E126
:10356000AF2E8A2D90E093012B19310928173907C6
:1035700014F4AB2CA19492012C0D3D1D08EE13E028
:103580004A2D6FE680910A090E94B011CA0CD11C25
:10359000BA0CC814D904C0F6B11001C02394422D4E
:1035A0004F716DE680910A090E94A1118B2D7BD984
:1035B000CBCF4CDA83309105E0F3682FCE01019632
:1035C00033DAF701EB56FE4F80E09491A1E8B0E0CA
:1035D000AC0FBD1FA80FB11D9C938F5F843010F4FA
:1035E0003196F3CFCD57DF4F6881C358D04070E09C
:1035F000AB014E5F5F4F282F30E04217530784F72F
:1036000000E0CE57DF4F2881C258D040CF57DF4F60
:103610004881C158D04081E890E08C0F9D1F0396EF
:1036200047D920E047E06AE680910A090E94FB1230
:103630008AE290E090930D0980930C092ED919D954
:1036400010E001C011E01093530380910A092CEDA2
:1036500030E0C556DF4F39832883CB59D040AE01C7
:1036600045565F4F63E1DCDB80910A092CE430E0D2
:10367000C756DF4F39832883C959D040AE0147561A
:103680005F4F65E1CDDB80910A092BEA3FEFC95618
:10369000DF4F39832883C759D040AE0149565F4F69
:1036A00067E1BEDB80910A092CEF36E0CB56DF4F95
:1036B00039832883C559D040AE014B565F4F6AE02D
:1036C000AFDB11112BC089E99AE0FAD921E047E07C
:1036D0006AE680910A090E94FB128AE59AE0F0D915
:1036E00088EF98E0909301028093000280916A0035
:1036F000836080936A00EC9ABCD88093A00380E337
:103700009AE0DED981E08093A50380910C09909125
:103710000D099093A2038093A10313C06FE07AE098
:103720008BED96E00E9405094091530350E060E064
:1037300070E02AE08BED96E00E943E098DE09AE071
:10374000BFD961E08DE00E94D30A61E08FE10E9461
:10375000D30A61E08DE10E94D30A60E081E20E9419
:10376000D30A62E082E20E94D30A61E08AE10E9409
:10377000D30A61E08CE10E94D30A61E08EE10E94ED
:10378000D30A61E080E20E94D30A61E08EE20E94E7
:10379000D30A61E08CE20E94D30A61E08CE20E94CD
:1037A000A40A61E08EE20E94A40A61E080E20E9425
:1037B000A40A61E08EE10E94A40A61E08CE10E940B
:1037C000A40A61E08AE10E94A40A82EB98E0DDDAB3
:1037D00040E050E06FE773EC82EB98E00E94331317
:1037E00082EB98E094DA8AE698E0CFDA40E050E0A5
:1037F0006FE773EC8AE698E00E9433138AE698E05C
:1038000086DA82E298E0C1DA40E050E06FE773ECDC
:1038100082E298E00E94331382E298E078DA8AED3F
:1038200097E0B3DA40E050E06FE773EC8AED97E0A1
:103830000E9433138AED97E06ADA82E997E0A5DA0D
:1038400040E050E06FE773EC82E997E00E943313A9
:1038500082E997E05CDA44E050E060E070E0CE019D
:1038600001960E94363189819A81AB81BC81809317
:10387000C0049093C104A093C204B093C30444E075
:1038800050E064E070E0CE0101960E943631C980BC
:10389000DA80EB80FC80C092D004D092D104E09218
:1038A000D204F092D30488E090E00E9446313C01BB
:1038B0008093CE047092CF048CE090E00E94463159
:1038C0008C018093B8041093B90420E030E0A90182
:1038D000C701B6010E944733181624F0F7FAF09496
:1038E000F7F8F0948090C0049090C104A090C204B6
:1038F000B090C30420E030E0A901C501B4010E94EA
:103900004733181624F0B7FAB094B7F8B094A5016D
:103910009401C701B6010E94C3316B017C01A30170
:1039200077FE03C0519541955109BA01550F880B97
:10393000990B0E9420309B01AC01C701B6010E9487
:10394000C3316B017C01C80117FF03C091958195BC
:103950009109BC01990F880B990B0E9420309B01A3
:10396000AC01C701B6010E94C33120E030E0A901DB
:103970000E941A30811168C02091C4043091C5049E
:103980004091C6045091C70460E070E0CB010E94F2
:10399000C2316093C0047093C1048093C2049093B9
:1039A000C3042091D4043091D5044091D6045091A1
:1039B000D70460E070E0CB010E94C2316093D00474
:1039C0007093D1048093D2049093D30486E30E9431
:1039D000D60B2EE031E0DC010E94BE33C12CE4E0C6
:1039E000DE2EE12CF12CA70196010E946531DA014F
:1039F000C90187589109A109B1099195819591094A
:103A00009093CF048093CE0487E30E94D60B2EE0E0
:103A100031E0DC010E94BE33A70196010E946531AE
:103A2000DA01C90187589109A109B1092227332771
:103A3000281B390B3093B9042093B80468EE73E067
:103A400080E090E00E94F50B11E08091A5038823AF
:103A500031F12091A3033091A4038091A1039091AF
:103A6000A20340915203411103C028173907C8F33C
:103A7000109252030E943914082F8093A0030E94D1
:103A800026159093A4038093A30304FD03C081151E
:103A9000944099F40E944D148FE29BE011D807E204
:103AA0008EE396E00E94E0062091F80318161906AE
:103AB0000CF096C2211194C268C201FFF0CFE090D1
:103AC000A303F090A403C090A103D090A203EC1430
:103AD000FD0438F40E9426159093A4038093A30359
:103AE000EECF6C2D80E693E00E941415EC18FD08D3
:103AF000F092A403E092A303A0906403B12CBA2C2B
:103B0000AA2480916503A82AE0906803F12CFE2C7A
:103B1000EE2480916903E82AC0906C03D12CDC2C40
:103B2000CC2480916D03C82A6091600370E0762FE9
:103B3000662780916103682B072E000C880B990B78
:103B40000E94203020E030E040E858E30E947F30BF
:103B50002B013C016093FA087093FB088093FC08EA
:103B60009093FD08B501BB0C880B990B0E94203087
:103B700020E030E040E858E30E947F304B015C01D8
:103B80006093FE087093FF088093000990930109E9
:103B9000B701FF0C880B990B0E94203020E030E029
:103BA00040E858E30E947F30C356DF4F6883798333
:103BB0008A839B83CD59D040609302097093030997
:103BC0008093040990930509B601DD0C880B990BCD
:103BD0000E94203020E030E040E858E30E947F302F
:103BE000CF55DF4F688379838A839B83C15AD04046
:103BF0006093060970930709809308099093090957
:103C00009B01AC01C501B4010E947F306B017C01B6
:103C1000C356DF4F288139814A815B81CD59D0401D
:103C2000C301B2010E947F309B01AC01C701B60104
:103C30000E94C2319B01AC010E94C331CB55DF4FC2
:103C4000688379838A839B83C55AD0406093EE084A
:103C50007093EF088093F0089093F108A501940108
:103C6000C301B2010E947F306B017C01CF55DF4F51
:103C7000288139814A815B81C15AD040C356DF4FC8
:103C8000688179818A819B81CD59D0400E947F30A3
:103C90009B01AC01C701B6010E94C3319B01AC017D
:103CA0000E94C331C755DF4F688379838A839B8322
:103CB000C95AD0406093F2087093F3088093F408D7
:103CC0009093F508A3019201C301B2010E947F30D5
:103CD0006B017C01A5019401C501B4010E947F30F4
:103CE0009B01AC01C701B6010E94C2316B017C018E
:103CF000C356DF4F288139814A815B81CD59D0403D
:103D0000CA01B9010E947F309B01AC01C701B60115
:103D10000E94C2316B017C01CF55DF4F2881398170
:103D20004A815B81C15AD040CA01B9010E947F30EB
:103D30009B01AC01C701B6010E94C3316B017C013C
:103D40006093F6087093F7088093F8089093F90849
:103D5000A3019201C301B2010E94C331C355DF4FD9
:103D6000688379838A839B83CD5AD040A5019401CF
:103D7000C501B4010E94C331CF54DF4F68837983FA
:103D80008A839B83C15BD040A3019201C355DF4F5F
:103D9000688179818A819B81CD5AD0400E947F3091
:103DA0002B013C01A5019401CF54DF4F688179813B
:103DB0008A819B81C15BD0400E947F309B01AC0116
:103DC000C301B2010E94C33120E030E040E85FE36C
:103DD0000E94C2312B013C01C356DF4F288139813B
:103DE0004A815B81CD59D040CF54DF4F68817981C2
:103DF0008A819B81C15BD0400E947F304B015C0176
:103E0000CF55DF4F288139814A815B81C15AD0402B
:103E1000C355DF4F688179818A819B81CD5AD0401B
:103E20000E947F309B01AC01C501B4010E94C231E8
:103E3000A30192010E9436324B015C01609354034E
:103E4000709355038093560390935703A7019601EF
:103E5000C701B6010E947F302B013C01C755DF4FDF
:103E6000288139814A815B81C95AD040CA01B90190
:103E70000E947F30A30192010E94C3310E945633F9
:103E80009B01AC01CB55DF4F688179818A819B8191
:103E9000C55AD0400E9489320E9461326B017C0178
:103EA000609358037093590380935A0390935B0374
:103EB000CB55DF4F288139814A815B81C55AD0407B
:103EC000CA01B9010E947F30A30192010E94C3314F
:103ED0000E9456339B01AC01C755DF4F6881798141
:103EE0008A819B81C95AD0400E9489320E946132E6
:103EF0002B013C0160935C0370935D0380935E0330
:103F000090935F0320E030E044E353E4C501B40143
:103F10000E947F302BED3FE049E450E40E9489325B
:103F200060939604709397048093980490939904F7
:103F300020E030E044E353E4C701B6010E947F3043
:103F40002BED3FE049E450E40E9489326093C404C1
:103F50007093C5048093C6049093C70420E030E0BA
:103F600044E353E4C301B2010E947F302BED3FE0F4
:103F700049E450E40E9489326093D4047093D504DC
:103F80008093D6049093D7048ACD8EE396E00E9466
:103F9000BE069091A7039923E9F0E091A6038E3322
:103FA00071F0AE2FB0E0A855BC4F8C93EF5FE832B4
:103FB00018F4E093A60374CD0093A60371CDF0E04E
:103FC000E855FC4F10821092A7031092A60310939D
:103FD000F80366CD8C3309F063CD1093A70360CD51
:103FE000222309F4A4C068EA73E080ED93E00E9404
:103FF000EF356EE373E080ED93E00E94622E0E9445
:10400000452E9093C9048093C8046EE373E080E06A
:1040100090E00E94622E0E94452E9093DB048093D4
:10402000DA046EE373E080E090E00E94622E0E946A
:10403000452E9093B5048093B4046EE373E080E062
:1040400090E00E94622E0E94452E9093A9048093D6
:10405000A8046EE373E080E090E00E94622E0E946C
:10406000452E90932102809320026EE373E080E05E
:1040700090E00E94622E0E94452E9093170280933A
:1040800016026EE373E080E090E00E94622E0E94D0
:10409000452E90931502809314026EE373E080E046
:1040A00090E00E94622E0E94452E9093130280930E
:1040B00012026EE373E080E090E00E94622E0E94A4
:1040C000452E90931F0280931E026EE373E080E002
:1040D00090E00E94622E0E94452E90931B028093D6
:1040E0001A026EE373E080E090E00E94622E0E946C
:1040F000452E90931D0280931C026EE373E080E0D6
:1041000090E00E94622E0E94452E909311028093AF
:1041100010026EE373E080E090E00E94622E0E9445
:10412000452E90932502809324021092F8030FE10C
:1041300081EA95E00E94E0062091630418161906B2
:1041400064F521112AC081EA95E00E94BE06909193
:10415000FA039923E9F0E091F9038E3371F0AE2F61
:10416000B0E0AD5DBB4F8C93EF5FE03218F4E093AD
:10417000F903DECF0093F903DBCFF0E0ED5DFB4FF9
:1041800010821092FA031092F90310936304D0CFB7
:104190008C3371F61093FA03CBCF222399F163E2AB
:1041A00074E083E494E00E94EF356EE373E083E40F
:1041B00094E00E94622EBC018BEF93E00E94EF35E9
:1041C0006EE373E080E090E00E94622E0E94422E37
:1041D00060939E0470939F048093A0049093A10425
:1041E0006EE373E080E090E00E94622E0E94422E17
:1041F00060936404709365048093660490936704ED
:104200001092630464E47BE08EE396E00E9405096B
:10421000609176047091770480917804909179048C
:1042200042E00E94A91562E47BE08EE396E00E94E2
:104230000509609164047091650480916604909111
:10424000670442E00E94A91560E47BE08EE396E0FB
:104250000E94050960918E0470918F048EE396E0B0
:104260000E9473156EE37BE08EE396E00E940509E1
:104270006EE47BE081EA95E00E9405096CE47BE056
:1042800081EA95E00E9405096AE47BE081EA95E015
:104290000E940509609170047091710481EA95E0B3
:1042A0000E94731568E47BE081EA95E00E940509AD
:1042B000609112027091130281EA95E00E947315D9
:1042C00066E47BE081EA95E00E9405098091160290
:1042D00090911702009779F5809118029091190238
:1042E000019709F042C0E090E404F090E504B1E0E9
:1042F000EB16F104D1F580916A0490916B04892B3F
:10430000A1F50E94362E25E030E040E050E00E940A
:1043100065317093690460936804660F771FFB0131
:10432000E05DFD4F60E080810E94A40AF0926B0482
:10433000E0926A041AC00197C1F410926B041092C3
:104340006A0461E08AE10E94A40A61E08CE10E94B3
:10435000A40A61E08EE10E94A40A61E080E20E946A
:10436000A40A61E080E00E94A40A80911402909166
:1043700015020097E9F480911802909119020197B3
:10438000E9F48091E4049091E50481309105B1F461
:1043900090937304809372040E942D0C60936C04BC
:1043A00070936D0480936E0490936F0460E003C07B
:1043B000019721F461E08CE20E94A40A82E20E944B
:1043C0007C0A7C01909319028093180288E30E9472
:1043D000D60B2FEF30E0DC010E94BE332EE130E03F
:1043E00040E050E00E9465313093750420937404DE
:1043F000E114F104A1F4293231058CF080917204AA
:1044000090917304892B59F42F3F310519F014F062
:104410002FEF30E0309371042093700426C0109287
:10442000710410927004EA94EF28F9F480917204F8
:1044300090917304892BC9F00E942D0CC0906C04DC
:10444000D0906D04E0906E04F0906F04DC01CB011D
:104450008C199D09AE09BF09843F9140A105B105A2
:1044600020F0109273041092720489E30E94D60B1C
:10447000BC01990F880B990B0E94203026E636E686
:1044800046EA50E40E947F3020E030E040E85AE302
:104490000E947F3028E530E344EB5EE30E948932DE
:1044A00060937604709377048093780490937904F2
:1044B00081E20E947C0A7C019093E5048093E404ED
:1044C0008091240290912502009709F09FC041E05D
:1044D000E416F10409F09CC08091E0049091E1049D
:1044E0009C012F5F3F4F2330310538F52091E204C6
:1044F0003091E3042F5F3F4F23303105F0F42091DA
:10450000DC043091DD042F5F3F4F23303105A8F4E8
:104510002091840430918504232B79F40E942D0C82
:1045200060937E0470937F04809380049093810451
:10453000F0928504E09284041DC00296059770F401
:104540008091E2049091E3040296059738F48091FB
:10455000DC049091DD040296059760F010928504CA
:104560001092840461E08FE10E94A40A10928304F7
:10457000109282048091840490918504019711F037
:104580000C94F82B0E942D0CC0907E04D0907F04D8
:10459000E0908004F0908104DC01CB018C199D092E
:1045A000AE09BF09883B9B40A105B10510F40C94EE
:1045B000F82B20E030E048EC51E46091CA0470919F
:1045C000CB048091CC049091CD040E941A3087FDD9
:1045D00002C00C94F82B20E030E040E051E4609100
:1045E000BC047091BD048091BE049091BF040E94F0
:1045F0001A3087FD02C00C94F82B60E08FE10E9416
:10460000A40A61E08DE10E94A40A14C0019711F090
:10461000EF2881F460E08FE10E94A40A60E08DE160
:104620000E94A40A109285041092840410928304BC
:104630001092820480911A0290911B0281309105A0
:1046400019F487E390E00AC08230910519F48BE4F5
:1046500090E004C0039731F48EE690E0909323023B
:104660008093220280911E0290911F020097C9F54B
:104670000E942D0C6B017C0180919004909191041B
:10468000892B81F40E942D0C60938604709387041B
:10469000809388049093890481E090E09093910442
:1046A00080939004809190049091910481309105C1
:1046B00021F540918604509187046091880470919F
:1046C0008904C41AD50AE60AF70AA8EBCA16ABE0B1
:1046D000DA06E104F10488F090938F0480938E044D
:1046E00008C0019731F08091240290912502892B16
:1046F00021F4109291041092900480918E04909174
:104700008F04019709F034C12AE939E949E15EE3F0
:1047100060918A0470918B0480918C0490918D0437
:104720000E94C33160938A0470938B0480938C043D
:1047300090938D0420911C0230911D02232B09F0CF
:1047400003C120912402309125022130310509F066
:10475000FBC0C090C404D090C504E090C604F090A3
:10476000C704F7FAF094F7F8F094C092C004D0921E
:10477000C104E092C204F092C3048091D4049091E9
:10478000D504A091D604B091D704B0588093D0043A
:104790009093D104A093D204B093D30486E30E94F3
:1047A000D60B2EE031E0DC010E94BE3320E034E085
:1047B00040E050E00E946531DA01C9018758910953
:1047C000A109B10922273327281B390B3093CF04C5
:1047D0002093CE0487E30E94D60B2EE031E0DC016B
:1047E0000E94BE3320E034E040E050E00E9465319A
:1047F000DA01C90187589109A109B1092227332794
:10480000281B390B3093B9042093B80444E050E0DE
:1048100060E070E0CE018F579F4F0E943631CF5736
:10482000DF4F288139814A815B81C158D040C7015F
:10483000B6010E941A308823C9F08091C00490917B
:10484000C104A091C204B091C304CF56DF4F888346
:104850009983AA83BB83C159D04044E050E060E013
:1048600070E0CE018F569F4F0E944B31C090D00414
:10487000D090D104E090D204F090D30444E050E012
:1048800064E070E0CE018F579F4F0E943631CF57C2
:10489000DF4F288139814A815B81C158D040C701EF
:1048A000B6010E941A308823A1F08091D004909123
:1048B000D104A091D204B091D30489839A83AB83AD
:1048C000BC8344E050E064E070E0CE0101960E94B9
:1048D0004B31E090CE04F090CF0488E090E00E944D
:1048E0004631E816F90629F0B70188E090E00E9409
:1048F0006231E090B804F090B9048CE090E00E943E
:104900004631E816F90629F0B7018CE090E00E94E4
:10491000623110928F0410928E0410928A041092C9
:104920008B0410928C0410928D0460E08CE10E9444
:10493000A40A68EE73E080E090E00E94F50B61E06D
:104940008CE10E94A40A14C020E030E04AE753E45E
:104950000E94473387FD0CC010928F0410928E0482
:1049600010928A0410928B0410928C0410928D0481
:104970008091240290912502892B09F0C5C680916F
:10498000E4049091E504019709F0BEC60E942D0C45
:104990002091DA043091DB0437FD0BC02130B2E006
:1049A0003B0714F020E032E0032E000C440B550BC3
:1049B00003C020E030E0A901A2E3B0E00E94813111
:1049C0006B017C0189E0F594E794D794C7948A95AC
:1049D000D1F729E1C21AD108E108F108D092E30425
:1049E000C092E20480905E0890905F08A0906008FA
:1049F000B090610820E030E040E050ECC501B40127
:104A00000E9447331816C4F420E030E040E050E440
:104A1000C501B4010E941A3087FF0EC0C114D10431
:104A2000E104F10449F410925E0810925F081092BC
:104A30006008109261082FC0B601DD0C880B990B3D
:104A40000E9420306B017C01A50194010E94473334
:104A500018164CF420E030E040E050E4C501B40109
:104A60000E94C33110C0A5019401C701B6010E9484
:104A70001A3087FF10C020E030E040E050E4C5016C
:104A8000B4010E94C23160935E0870935F08809306
:104A900060089093610886E30E94D60B2EE031E017
:104AA000DC010E94BE3320E034E040E050E00E9490
:104AB000653169017A0187E8C81AD108E108F1086F
:104AC000D092D904C092D8042091D0043091D1045E
:104AD0004091D2045091D3046091D4047091D504D4
:104AE0008091D6049091D7040E94C33160936608E8
:104AF00070936708809368089093690880905E08B7
:104B000090905F08A0906008B090610820E030E0CD
:104B100040EF51ECC501B4010E941A3087FD11C06D
:104B200020E030E040EF51E4C501B4010E9447337A
:104B300018166CF4812C912CB0EFAB2EB1E4BB2E87
:104B400006C0812C912C00EFA02E01ECB02E80929B
:104B50005E0890925F08A0926008B09261088AE6B1
:104B600098E00E94DB0D6091CE047091CF046C0D33
:104B70007D1D072E000C880B990B0E94203060933E
:104B8000AE087093AF088093B0089093B108C090BE
:104B90006208D0906308E0906408F090650820E017
:104BA00030E040EF51ECC701B6010E941A3087FD9A
:104BB0000FC020E030E040EF51E4C701B6010E9491
:104BC0004733181654F0C701B6010E94F13209C0EC
:104BD00062EE7FEF8FEF9FEF04C06EE170E080E048
:104BE00090E09B01AC01225E3F4F4F4F5F4FA4EC22
:104BF000BFEF0E948D312CE330E040E050E00E9496
:104C00006531CA01B901625E7F4F8F4F9F4F0E948D
:104C100020306093A6087093A7088093A80890930B
:104C2000A90882EB98E00E94DB0DC090AA08D09002
:104C3000AB08E090AC08F090AD0820E030E040E830
:104C40005FEBC701B6010E941A30181654F120E03C
:104C500030E040E052EC6091AE087091AF08809176
:104C6000B0089091B1080E9447331816D4F420E0A0
:104C700030E0A901C701B6010E944733181624F09D
:104C8000F7FAF094F7F8F094C092CA04D092CB04EB
:104C9000E092CC04F092CD04C701B6010E94F1323B
:104CA0003CC020E030E040E85FE3C701B6010E946D
:104CB000473387FD30C020E030E040E052E46091AF
:104CC000AE087091AF088091B0089091B1080E9431
:104CD0001A3087FF20C020E030E0A901C701B601EB
:104CE0000E944733181624F0F7FAF094F7F8F0947E
:104CF000C092CA04D092CB04E092CC04F092CD04CE
:104D0000C701B6010E94F13283E00E940F0B60E000
:104D100070E084E008C060E070E084E00E940F0B67
:104D200060E070E083E00E940F0B2091220230913E
:104D30002302CC24DD24C21AD30A0D2C000CEE0869
:104D4000FF08A091C804B091C904A901330F660BF4
:104D5000770B9A01AB012C193D094E095F090E949E
:104D60008B3120E032E040E050E00E946531C20E1D
:104D7000D31EE41EF51ED092E104C092E0042091FF
:104D8000DE043091DF042C153D054CF4C901019679
:104D90009093DF048093DE0437FD1EC010C0C2165E
:104DA000D306D4F5C90101979093DF048093DE0404
:104DB00037FD12C097FF03C09195819591098F36F9
:104DC000910514F08EE690E0880F991FFC01E85CD5
:104DD000FD4F6081718112C09195819591098F3647
:104DE000910514F08EE690E0880F991FFC01E85CB5
:104DF000FD4F60817181719561957109072E000CDD
:104E0000880B990B0E942030609316087093170846
:104E10008093180890931908C0901608D09017082E
:104E2000E0901808F090190820E030E04CE552ECD2
:104E3000C701B6010E941A3087FD11C020E030E0A2
:104E40004CE552E4C701B6010E94473318166CF4D2
:104E5000C12CD12C7CE5E72E72E4F72E06C0C12CC4
:104E6000D12CECE5EE2EE2ECFE2EC0921608D0928C
:104E70001708E0921808F09219082091C0043091A8
:104E8000C1044091C2045091C3046091C404709164
:104E9000C5048091C6049091C7040E94C3314B01A0
:104EA0005C0160931E0870931F0880932008909304
:104EB000210882E298E00E94DB0DC0901A08D09091
:104EC0001B08E0901C08F0901D0820E030E040E056
:104ED00050E4C701B6010E94473387FD20C020E09F
:104EE00030E0A901C701B6010E944733181624F02B
:104EF000F7FAF094F7F8F094C092BC04D092BD0495
:104F0000E092BE04F092BF04C701B6010E94F132E4
:104F10008BE00E940F0B60E070E08CE029C020E085
:104F200030E040E050ECC701B6010E941A3087FF24
:104F300021C020E030E0A901C701B6010E9447333B
:104F4000181624F0F7FAF094F7F8F094C092BC0425
:104F5000D092BD04E092BE04F092BF04C701B60136
:104F60000E94F1328CE00E940F0B60E070E08BE059
:104F70000E940F0BC0901608D0901708E0901808F8
:104F8000F090190820E030E040E450E4C701B60199
:104F90000E941A3087FF0FC020E030E040E450EC60
:104FA000C701B6010E94473318162CF41092BB04B7
:104FB0001092BA0414C020E030E040E751E4609160
:104FC0001A0870911B0880911C0890911D080E947E
:104FD00089320E94F1327093BB046093BA0487E374
:104FE0000E94D60B2EE031E0DC010E94BE3320E0AF
:104FF00034E040E050E00E946531DA01C901875891
:105000009109A109B109C090B804D090B904C80EA3
:10501000D91ED092B704C092B6042091B404309146
:10502000B504AEEDBFEF0E94B8336130AAEB7A074A
:10503000AFEF8A079A079CF06115B2E07B07810504
:10504000910584F420E032E040E050E00E946531B8
:10505000DA01C9014196A11DB11D9C0105C02FEEC9
:105060003FEF02C021E130E08091BA049091BB048F
:105070007901E81AF90AF092DD04E092DC04B60145
:105080000D2C000C880B990BDBD7A50194010E9415
:10509000C3316093D6077093D7078093D807909356
:1050A000D9078090CE079090CF07A090D007B090FE
:1050B000D10720E030E040E85FEBC501B4010E9479
:1050C00047331816ACF420E030E040E85FE3C50158
:1050D000B401B0D787FF0CC0E114F10449F4109279
:1050E000CE071092CF071092D0071092D1072DC093
:1050F000B701FF0C880B990BA3D72B013C01A5012D
:1051000094010E94473318164CF420E030E040E848
:105110005FE3C501B4010E94C3310FC0A501940132
:10512000C301B20187D787FF10C020E030E040E81C
:105130005FE3C501B4010E94C2316093CE07709352
:10514000CF078093D0079093D1078090CE0790909F
:10515000CF07A090D007B090D10720E030E048E81A
:1051600051ECC501B40166D787FD11C020E030E0E5
:1051700048E851E4C501B4010E94473318166CF4A5
:10518000812C912C58E8A52E51E4B52E06C0812C17
:10519000912C68E8A62E61ECB62E8092CE079092F4
:1051A000CF07A092D007B092D1078AED97E00E9476
:1051B000DB0D8090D2079090D307A090D407B090D9
:1051C000D50720E030E0A901C501B40133D787FF3E
:1051D0001FC028EEC2162FEFD206D4F020E030E038
:1051E000A901C501B4010E944733181624F0B7FA8B
:1051F000B094B7F8B0948092B0049092B104A092A9
:10520000B204B092B304C501B4010E94F1322FC0C0
:1052100020E030E0A901C501B4010E94473387FDB9
:1052200024C039E1C316D10404F520E030E0A9011F
:10523000C501B4010E944733181624F0B7FAB094A0
:10524000B7F8B0948092B0049092B104A092B204E6
:10525000B092B304C501B4010E94F13285E00E940E
:105260000F0B60E070E086E008C060E070E086E070
:105270000E940F0B60E070E085E00E940F0B0E941F
:105280002D0C6B017C018091AE049091AF04892BB1
:1052900009F043C08091200290912102892BE9F509
:1052A0008091AA049091AB04A091AC04B091AD049C
:1052B000A7019601281B390B4A0B5B0BDA01C901C8
:1052C000893E9340A105B10540F120919E043091A3
:1052D0009F044091A0045091A104609196047091A4
:1052E000970480919804909199040E94C231609330
:1052F0009A0470939B0480939C0490939D0481E096
:1053000090E09093AF048093AE04C092AA04D09230
:10531000AB04E092AC04F092AD048091AE049091A5
:10532000AF04019739F58091200290912102892BD9
:1053300009F58091AA049091AB04A091AC04B091BE
:10534000AD04A7019601281B390B4A0B5B0BDA0150
:10535000C901893E9340A105B10560F01092AF04E8
:105360001092AE04C092AA04D092AB04E092AC04B6
:10537000F092AD048091AE049091AF04A091A80486
:10538000B091A904019709F02CC128E730E00E94F0
:10539000BE3320E032E040E050E097D769017A0167
:1053A0008CE3C81AD108E108F108D092A304C09296
:1053B000A20420919A0430919B0440919C04509146
:1053C0009D0460919E0470919F048091A00490912F
:1053D000A104D9D720919604309197044091980464
:1053E00050919904CFD74B015C0120E030E044E3B9
:1053F00053EC20D687FF08C020E030E044EB53E4B4
:10540000C501B401C0D71AC020E030E044E353E442
:10541000C501B4010E94473318164CF080928E07E4
:1054200090928F07A0929007B09291070FC020E052
:1054300030E044EB53E4C501B401A4D760938E0778
:1054400070938F078093900790939107B601DD0CBE
:10545000880B990BF5D56093860770938707809327
:1054600088079093890782E997E00E94DB0DC0903E
:105470008A07D0908B07E0908C07F0908D0720E092
:1054800030E040E850ECC701B601D4D587FF4BC0EF
:1054900020E030E0A901C701B6010E944733181689
:1054A0004CF420E030E0A901C701B601C3D587FF65
:1054B0000BC022C020E030E04FE753ECC701B6013B
:1054C000B9D587FF0BC01CC020E030E04FE753E4A4
:1054D000C701B6010E944733181694F020E030E06F
:1054E000A901C701B6010E94473318167CF0F7FAEC
:1054F000F094F7F8F0940AC0C12CD12C760106C0C4
:10550000C12CD12C4FE7E42E43E4F42EC092920438
:10551000D0929304E0929404F0929504C701B601EE
:105520000E94F132E8C020E030E040E850E4C701DA
:10553000B6010E94473318160CF04BC020E030E053
:10554000A901C701B6010E94473318164CF420E0A8
:1055500030E0A901C701B6016DD587FF0BC022C09D
:1055600020E030E04FE753ECC701B60163D587FF79
:105570000BC01CC020E030E04FE753E4C701B60188
:105580000E944733181694F020E030E0A901C701CB
:10559000B6010E94473318167CF0F7FAF094F7F83A
:1055A000F0940AC0C12CD12C760106C0C12CD12C9C
:1055B0003FE7E32E33E4F32EC0929204D09293049B
:1055C000E0929404F0929504C701B6010E94F13272
:1055D00002C060E070E088E00E940F0B60E070E0C5
:1055E00069C02EEF31E00E94BE3320E032E040E09F
:1055F00050E06BD6DA01C9018F5F9109A109B109A9
:105600009093A7048093A6042D5F310925303105BE
:1056100078F48091A4049091A5040E964D9740F4DF
:105620001092A7041092A6041092A5041092A4044C
:105630002091A6043091A7048091A4049091A50420
:105640008217930714F4449604C0281739072CF4E2
:1056500044979093A5048093A404E090A404F09050
:10566000A5049DEEE9169FEFF90634F58091E40458
:105670009091E5040197E9F5AFEFEA16F10421F006
:105680001CF0EE24EA94F12CB1E0EB16BFEFFB0620
:1056900024F4EE24E394FF24FA94F092A504E0921B
:1056A000A40460E070E088E00E940F0B6627772773
:1056B0006E197F0987E025C024E1E216F104CCF0E1
:1056C0008091E4049091E504019799F43FEFE3168B
:1056D000F10421F01CF0EE24EA94F12CF092A504E0
:1056E000E092A40460E070E087E00E940F0BB70135
:1056F00007C060E070E087E00E940F0B60E070E0A0
:1057000088E00E940F0B70C01092E3041092E20434
:105710001092660810926708109268081092690843
:1057200010925E0810925F08109260081092610853
:105730001092620810926308109264081092650833
:105740001092AE081092AF081092B0081092B108F3
:105750001092A6081092A7081092A8081092A90803
:105760001092AA081092AB081092AC081092AD08E3
:105770001092E1041092E0041092DF041092DE0413
:1057800010921E0810921F081092200810922108F3
:105790001092160810921708109218081092190803
:1057A00010921A0810921B0810921C0810921D08E3
:1057B0001092DD041092DC041092D6071092D707E5
:1057C0001092D8071092D9071092CE071092CF07E7
:1057D0001092D0071092D1071092D2071092D307DF
:1057E0001092D4071092D5070E948F070C94251DA4
:1057F0008090CA049090CB04A090CC04B090CD04CB
:1058000020E030E048E452E4C501B40140D7181666
:105810008CF04090BC045090BD046090BE04709029
:10582000BF0420E030E040EA51E4C301B2012FD7C9
:1058300018164CF4109285041092840461E08FE1F4
:105840000E94A40A5BC020E030E048EC51E4C501AE
:10585000B4011DD7E0908204F090830418164CF038
:1058600020E030E040E051E4C301B20110D7181647
:10587000ACF4E114F10491F40E942D0C60937A04CD
:1058800070937B0480937C0490937D0481E090E08E
:1058900090938304809382040C940123EA94EF286C
:1058A00011F00C9401230E942D0CC0907A04D0902A
:1058B0007B04E0907C04F0907D04DC01CB018C192A
:1058C0009D09AE09BF0984369105A105B10510F403
:1058D0000C94012320E030E040EF51E4C501B40115
:1058E000D6D618160CF4A6CF20E030E040E051E404
:1058F000C301B201CCD618160CF49CCF10928304CD
:10590000109282040C940123AF92BF92CF92DF9247
:10591000EF92FF920F931F93CF93E1EAF5E013828A
:10592000128288EE93E0A0E0B0E084839583A683A2
:10593000B7832EE133E03183208345E351E055877F
:10594000448744E351E05787468740E351E0518B59
:10595000408B41E351E0538B428B42E351E0558B46
:10596000448B46E351E0578B468B118E128E138E7B
:10597000148EEEE3F6E01382128284839583A6836D
:10598000B783318320834DEC50E0558744874CEC3E
:1059900050E05787468748EC50E0518B408B49ECEC
:1059A00050E0538B428B4AEC50E0558B448B4EECCD
:1059B00050E0578B468B118E128E138E148EEBEDAA
:1059C000F6E01382128284839583A683B7833183A2
:1059D000208325EC30E03587248724EC30E03787BE
:1059E000268720EC30E0318B208B21EC30E0338BAC
:1059F000228B22EC30E0358B248B26EC30E0378B89
:105A0000268B118E128E138E148EE8E7F7E0138228
:105A1000128284839583A683B78380E393E0918386
:105A2000808384E690E0909385078093840788E6DE
:105A300080930A09EAEFF8E080E090E0A0E8BFE395
:105A400080839183A283B383148215821682178286
:105A5000108611861286138614861586168617867A
:105A6000E9E2F9E011821082138212821582148217
:105A7000E3E2F9E01182108213821282158214820D
:105A8000EDE1F9E0118210821382128215821482F4
:105A9000EEEEF8E0108211821282138214821582D7
:105AA0001682178210861186128613861F921F9205
:105AB0001F92C1E0CF938EE38F9389E98F938F93E9
:105AC0008AE98F93A12CB12C6501E12CF12C00E522
:105AD00011E426EA38E04AEA58E06EEA78E082EB20
